{
  "contractName": "Land",
  "abi": [
    {
      "inputs": [],
      "payable": false,
      "stateMutability": "nonpayable",
      "type": "constructor"
    },
    {
      "anonymous": false,
      "inputs": [
        {
          "indexed": true,
          "internalType": "uint256",
          "name": "_landId",
          "type": "uint256"
        }
      ],
      "name": "AddingLand",
      "type": "event"
    },
    {
      "anonymous": false,
      "inputs": [
        {
          "indexed": false,
          "internalType": "uint256",
          "name": "_landId",
          "type": "uint256"
        },
        {
          "indexed": false,
          "internalType": "address",
          "name": "_heir",
          "type": "address"
        }
      ],
      "name": "HeirDesignated",
      "type": "event"
    },
    {
      "anonymous": false,
      "inputs": [
        {
          "indexed": false,
          "internalType": "uint256",
          "name": "_landId",
          "type": "uint256"
        },
        {
          "indexed": false,
          "internalType": "address",
          "name": "_newOwner",
          "type": "address"
        }
      ],
      "name": "InheritanceClaimed",
      "type": "event"
    },
    {
      "anonymous": false,
      "inputs": [
        {
          "indexed": false,
          "internalType": "address",
          "name": "_sellerId",
          "type": "address"
        }
      ],
      "name": "Landrequested",
      "type": "event"
    },
    {
      "anonymous": false,
      "inputs": [
        {
          "indexed": false,
          "internalType": "uint256",
          "name": "_landId",
          "type": "uint256"
        }
      ],
      "name": "OwnerMarkedDeceased",
      "type": "event"
    },
    {
      "anonymous": false,
      "inputs": [
        {
          "indexed": false,
          "internalType": "address",
          "name": "_registrationId",
          "type": "address"
        }
      ],
      "name": "Registration",
      "type": "event"
    },
    {
      "anonymous": false,
      "inputs": [
        {
          "indexed": false,
          "internalType": "address",
          "name": "_id",
          "type": "address"
        }
      ],
      "name": "Rejected",
      "type": "event"
    },
    {
      "anonymous": false,
      "inputs": [
        {
          "indexed": false,
          "internalType": "address",
          "name": "_id",
          "type": "address"
        }
      ],
      "name": "Verified",
      "type": "event"
    },
    {
      "anonymous": false,
      "inputs": [
        {
          "indexed": false,
          "internalType": "address",
          "name": "_buyerId",
          "type": "address"
        }
      ],
      "name": "requestApproved",
      "type": "event"
    },
    {
      "constant": true,
      "inputs": [
        {
          "internalType": "address",
          "name": "",
          "type": "address"
        }
      ],
      "name": "BuyerMapping",
      "outputs": [
        {
          "internalType": "address",
          "name": "id",
          "type": "address"
        },
        {
          "internalType": "string",
          "name": "name",
          "type": "string"
        },
        {
          "internalType": "uint256",
          "name": "age",
          "type": "uint256"
        },
        {
          "internalType": "string",
          "name": "city",
          "type": "string"
        },
        {
          "internalType": "string",
          "name": "aadharNumber",
          "type": "string"
        },
        {
          "internalType": "string",
          "name": "panNumber",
          "type": "string"
        },
        {
          "internalType": "string",
          "name": "document",
          "type": "string"
        },
        {
          "internalType": "string",
          "name": "email",
          "type": "string"
        }
      ],
      "payable": false,
      "stateMutability": "view",
      "type": "function"
    },
    {
      "constant": true,
      "inputs": [
        {
          "internalType": "address",
          "name": "",
          "type": "address"
        }
      ],
      "name": "BuyerRejection",
      "outputs": [
        {
          "internalType": "bool",
          "name": "",
          "type": "bool"
        }
      ],
      "payable": false,
      "stateMutability": "view",
      "type": "function"
    },
    {
      "constant": true,
      "inputs": [
        {
          "internalType": "address",
          "name": "",
          "type": "address"
        }
      ],
      "name": "BuyerVerification",
      "outputs": [
        {
          "internalType": "bool",
          "name": "",
          "type": "bool"
        }
      ],
      "payable": false,
      "stateMutability": "view",
      "type": "function"
    },
    {
      "constant": true,
      "inputs": [
        {
          "internalType": "uint256",
          "name": "",
          "type": "uint256"
        }
      ],
      "name": "InspectorMapping",
      "outputs": [
        {
          "internalType": "uint256",
          "name": "id",
          "type": "uint256"
        },
        {
          "internalType": "string",
          "name": "name",
          "type": "string"
        },
        {
          "internalType": "uint256",
          "name": "age",
          "type": "uint256"
        },
        {
          "internalType": "string",
          "name": "designation",
          "type": "string"
        }
      ],
      "payable": false,
      "stateMutability": "view",
      "type": "function"
    },
    {
      "constant": true,
      "inputs": [
        {
          "internalType": "uint256",
          "name": "",
          "type": "uint256"
        }
      ],
      "name": "LandHeir",
      "outputs": [
        {
          "internalType": "address",
          "name": "",
          "type": "address"
        }
      ],
      "payable": false,
      "stateMutability": "view",
      "type": "function"
    },
    {
      "constant": true,
      "inputs": [
        {
          "internalType": "uint256",
          "name": "",
          "type": "uint256"
        }
      ],
      "name": "LandOwner",
      "outputs": [
        {
          "internalType": "address",
          "name": "",
          "type": "address"
        }
      ],
      "payable": false,
      "stateMutability": "view",
      "type": "function"
    },
    {
      "constant": true,
      "inputs": [
        {
          "internalType": "uint256",
          "name": "",
          "type": "uint256"
        }
      ],
      "name": "LandVerification",
      "outputs": [
        {
          "internalType": "bool",
          "name": "",
          "type": "bool"
        }
      ],
      "payable": false,
      "stateMutability": "view",
      "type": "function"
    },
    {
      "constant": true,
      "inputs": [],
      "name": "Land_Inspector",
      "outputs": [
        {
          "internalType": "address",
          "name": "",
          "type": "address"
        }
      ],
      "payable": false,
      "stateMutability": "view",
      "type": "function"
    },
    {
      "constant": true,
      "inputs": [
        {
          "internalType": "uint256",
          "name": "",
          "type": "uint256"
        }
      ],
      "name": "OwnerDeceased",
      "outputs": [
        {
          "internalType": "bool",
          "name": "",
          "type": "bool"
        }
      ],
      "payable": false,
      "stateMutability": "view",
      "type": "function"
    },
    {
      "constant": true,
      "inputs": [
        {
          "internalType": "uint256",
          "name": "",
          "type": "uint256"
        }
      ],
      "name": "PaymentReceived",
      "outputs": [
        {
          "internalType": "bool",
          "name": "",
          "type": "bool"
        }
      ],
      "payable": false,
      "stateMutability": "view",
      "type": "function"
    },
    {
      "constant": true,
      "inputs": [
        {
          "internalType": "address",
          "name": "",
          "type": "address"
        }
      ],
      "name": "RegisteredAddressMapping",
      "outputs": [
        {
          "internalType": "bool",
          "name": "",
          "type": "bool"
        }
      ],
      "payable": false,
      "stateMutability": "view",
      "type": "function"
    },
    {
      "constant": true,
      "inputs": [
        {
          "internalType": "address",
          "name": "",
          "type": "address"
        }
      ],
      "name": "RegisteredBuyerMapping",
      "outputs": [
        {
          "internalType": "bool",
          "name": "",
          "type": "bool"
        }
      ],
      "payable": false,
      "stateMutability": "view",
      "type": "function"
    },
    {
      "constant": true,
      "inputs": [
        {
          "internalType": "address",
          "name": "",
          "type": "address"
        }
      ],
      "name": "RegisteredSellerMapping",
      "outputs": [
        {
          "internalType": "bool",
          "name": "",
          "type": "bool"
        }
      ],
      "payable": false,
      "stateMutability": "view",
      "type": "function"
    },
    {
      "constant": true,
      "inputs": [
        {
          "internalType": "uint256",
          "name": "",
          "type": "uint256"
        }
      ],
      "name": "RequestStatus",
      "outputs": [
        {
          "internalType": "bool",
          "name": "",
          "type": "bool"
        }
      ],
      "payable": false,
      "stateMutability": "view",
      "type": "function"
    },
    {
      "constant": true,
      "inputs": [
        {
          "internalType": "uint256",
          "name": "",
          "type": "uint256"
        }
      ],
      "name": "RequestedLands",
      "outputs": [
        {
          "internalType": "bool",
          "name": "",
          "type": "bool"
        }
      ],
      "payable": false,
      "stateMutability": "view",
      "type": "function"
    },
    {
      "constant": true,
      "inputs": [
        {
          "internalType": "uint256",
          "name": "",
          "type": "uint256"
        }
      ],
      "name": "RequestsMapping",
      "outputs": [
        {
          "internalType": "uint256",
          "name": "reqId",
          "type": "uint256"
        },
        {
          "internalType": "address",
          "name": "sellerId",
          "type": "address"
        },
        {
          "internalType": "address",
          "name": "buyerId",
          "type": "address"
        },
        {
          "internalType": "uint256",
          "name": "landId",
          "type": "uint256"
        }
      ],
      "payable": false,
      "stateMutability": "view",
      "type": "function"
    },
    {
      "constant": true,
      "inputs": [
        {
          "internalType": "address",
          "name": "",
          "type": "address"
        }
      ],
      "name": "SellerMapping",
      "outputs": [
        {
          "internalType": "address",
          "name": "id",
          "type": "address"
        },
        {
          "internalType": "string",
          "name": "name",
          "type": "string"
        },
        {
          "internalType": "uint256",
          "name": "age",
          "type": "uint256"
        },
        {
          "internalType": "string",
          "name": "aadharNumber",
          "type": "string"
        },
        {
          "internalType": "string",
          "name": "panNumber",
          "type": "string"
        },
        {
          "internalType": "string",
          "name": "landsOwned",
          "type": "string"
        },
        {
          "internalType": "string",
          "name": "document",
          "type": "string"
        }
      ],
      "payable": false,
      "stateMutability": "view",
      "type": "function"
    },
    {
      "constant": true,
      "inputs": [
        {
          "internalType": "address",
          "name": "",
          "type": "address"
        }
      ],
      "name": "SellerRejection",
      "outputs": [
        {
          "internalType": "bool",
          "name": "",
          "type": "bool"
        }
      ],
      "payable": false,
      "stateMutability": "view",
      "type": "function"
    },
    {
      "constant": true,
      "inputs": [
        {
          "internalType": "address",
          "name": "",
          "type": "address"
        }
      ],
      "name": "SellerVerification",
      "outputs": [
        {
          "internalType": "bool",
          "name": "",
          "type": "bool"
        }
      ],
      "payable": false,
      "stateMutability": "view",
      "type": "function"
    },
    {
      "constant": true,
      "inputs": [
        {
          "internalType": "uint256",
          "name": "",
          "type": "uint256"
        }
      ],
      "name": "buyers",
      "outputs": [
        {
          "internalType": "address",
          "name": "",
          "type": "address"
        }
      ],
      "payable": false,
      "stateMutability": "view",
      "type": "function"
    },
    {
      "constant": true,
      "inputs": [],
      "name": "buyersCount",
      "outputs": [
        {
          "internalType": "uint256",
          "name": "",
          "type": "uint256"
        }
      ],
      "payable": false,
      "stateMutability": "view",
      "type": "function"
    },
    {
      "constant": true,
      "inputs": [],
      "name": "inspectorsCount",
      "outputs": [
        {
          "internalType": "uint256",
          "name": "",
          "type": "uint256"
        }
      ],
      "payable": false,
      "stateMutability": "view",
      "type": "function"
    },
    {
      "constant": true,
      "inputs": [
        {
          "internalType": "uint256",
          "name": "",
          "type": "uint256"
        }
      ],
      "name": "lands",
      "outputs": [
        {
          "internalType": "uint256",
          "name": "id",
          "type": "uint256"
        },
        {
          "internalType": "uint256",
          "name": "area",
          "type": "uint256"
        },
        {
          "internalType": "string",
          "name": "city",
          "type": "string"
        },
        {
          "internalType": "string",
          "name": "state",
          "type": "string"
        },
        {
          "internalType": "uint256",
          "name": "landPrice",
          "type": "uint256"
        },
        {
          "internalType": "uint256",
          "name": "propertyPID",
          "type": "uint256"
        },
        {
          "internalType": "uint256",
          "name": "physicalSurveyNumber",
          "type": "uint256"
        },
        {
          "internalType": "string",
          "name": "ipfsHash",
          "type": "string"
        },
        {
          "internalType": "string",
          "name": "document",
          "type": "string"
        }
      ],
      "payable": false,
      "stateMutability": "view",
      "type": "function"
    },
    {
      "constant": true,
      "inputs": [],
      "name": "landsCount",
      "outputs": [
        {
          "internalType": "uint256",
          "name": "",
          "type": "uint256"
        }
      ],
      "payable": false,
      "stateMutability": "view",
      "type": "function"
    },
    {
      "constant": true,
      "inputs": [],
      "name": "requestsCount",
      "outputs": [
        {
          "internalType": "uint256",
          "name": "",
          "type": "uint256"
        }
      ],
      "payable": false,
      "stateMutability": "view",
      "type": "function"
    },
    {
      "constant": true,
      "inputs": [
        {
          "internalType": "uint256",
          "name": "",
          "type": "uint256"
        }
      ],
      "name": "sellers",
      "outputs": [
        {
          "internalType": "address",
          "name": "",
          "type": "address"
        }
      ],
      "payable": false,
      "stateMutability": "view",
      "type": "function"
    },
    {
      "constant": true,
      "inputs": [],
      "name": "sellersCount",
      "outputs": [
        {
          "internalType": "uint256",
          "name": "",
          "type": "uint256"
        }
      ],
      "payable": false,
      "stateMutability": "view",
      "type": "function"
    },
    {
      "constant": true,
      "inputs": [],
      "name": "getLandsCount",
      "outputs": [
        {
          "internalType": "uint256",
          "name": "",
          "type": "uint256"
        }
      ],
      "payable": false,
      "stateMutability": "view",
      "type": "function"
    },
    {
      "constant": true,
      "inputs": [],
      "name": "getBuyersCount",
      "outputs": [
        {
          "internalType": "uint256",
          "name": "",
          "type": "uint256"
        }
      ],
      "payable": false,
      "stateMutability": "view",
      "type": "function"
    },
    {
      "constant": true,
      "inputs": [],
      "name": "getSellersCount",
      "outputs": [
        {
          "internalType": "uint256",
          "name": "",
          "type": "uint256"
        }
      ],
      "payable": false,
      "stateMutability": "view",
      "type": "function"
    },
    {
      "constant": true,
      "inputs": [],
      "name": "getRequestsCount",
      "outputs": [
        {
          "internalType": "uint256",
          "name": "",
          "type": "uint256"
        }
      ],
      "payable": false,
      "stateMutability": "view",
      "type": "function"
    },
    {
      "constant": true,
      "inputs": [
        {
          "internalType": "uint256",
          "name": "i",
          "type": "uint256"
        }
      ],
      "name": "getArea",
      "outputs": [
        {
          "internalType": "uint256",
          "name": "",
          "type": "uint256"
        }
      ],
      "payable": false,
      "stateMutability": "view",
      "type": "function"
    },
    {
      "constant": true,
      "inputs": [
        {
          "internalType": "uint256",
          "name": "i",
          "type": "uint256"
        }
      ],
      "name": "getCity",
      "outputs": [
        {
          "internalType": "string",
          "name": "",
          "type": "string"
        }
      ],
      "payable": false,
      "stateMutability": "view",
      "type": "function"
    },
    {
      "constant": true,
      "inputs": [
        {
          "internalType": "uint256",
          "name": "i",
          "type": "uint256"
        }
      ],
      "name": "getState",
      "outputs": [
        {
          "internalType": "string",
          "name": "",
          "type": "string"
        }
      ],
      "payable": false,
      "stateMutability": "view",
      "type": "function"
    },
    {
      "constant": true,
      "inputs": [
        {
          "internalType": "uint256",
          "name": "i",
          "type": "uint256"
        }
      ],
      "name": "getPrice",
      "outputs": [
        {
          "internalType": "uint256",
          "name": "",
          "type": "uint256"
        }
      ],
      "payable": false,
      "stateMutability": "view",
      "type": "function"
    },
    {
      "constant": true,
      "inputs": [
        {
          "internalType": "uint256",
          "name": "i",
          "type": "uint256"
        }
      ],
      "name": "getPID",
      "outputs": [
        {
          "internalType": "uint256",
          "name": "",
          "type": "uint256"
        }
      ],
      "payable": false,
      "stateMutability": "view",
      "type": "function"
    },
    {
      "constant": true,
      "inputs": [
        {
          "internalType": "uint256",
          "name": "i",
          "type": "uint256"
        }
      ],
      "name": "getSurveyNumber",
      "outputs": [
        {
          "internalType": "uint256",
          "name": "",
          "type": "uint256"
        }
      ],
      "payable": false,
      "stateMutability": "view",
      "type": "function"
    },
    {
      "constant": true,
      "inputs": [
        {
          "internalType": "uint256",
          "name": "i",
          "type": "uint256"
        }
      ],
      "name": "getImage",
      "outputs": [
        {
          "internalType": "string",
          "name": "",
          "type": "string"
        }
      ],
      "payable": false,
      "stateMutability": "view",
      "type": "function"
    },
    {
      "constant": true,
      "inputs": [
        {
          "internalType": "uint256",
          "name": "i",
          "type": "uint256"
        }
      ],
      "name": "getDocument",
      "outputs": [
        {
          "internalType": "string",
          "name": "",
          "type": "string"
        }
      ],
      "payable": false,
      "stateMutability": "view",
      "type": "function"
    },
    {
      "constant": true,
      "inputs": [
        {
          "internalType": "uint256",
          "name": "id",
          "type": "uint256"
        }
      ],
      "name": "getLandOwner",
      "outputs": [
        {
          "internalType": "address",
          "name": "",
          "type": "address"
        }
      ],
      "payable": false,
      "stateMutability": "view",
      "type": "function"
    },
    {
      "constant": false,
      "inputs": [
        {
          "internalType": "address",
          "name": "_sellerId",
          "type": "address"
        }
      ],
      "name": "verifySeller",
      "outputs": [],
      "payable": false,
      "stateMutability": "nonpayable",
      "type": "function"
    },
    {
      "constant": false,
      "inputs": [
        {
          "internalType": "address",
          "name": "_sellerId",
          "type": "address"
        }
      ],
      "name": "rejectSeller",
      "outputs": [],
      "payable": false,
      "stateMutability": "nonpayable",
      "type": "function"
    },
    {
      "constant": false,
      "inputs": [
        {
          "internalType": "address",
          "name": "_buyerId",
          "type": "address"
        }
      ],
      "name": "verifyBuyer",
      "outputs": [],
      "payable": false,
      "stateMutability": "nonpayable",
      "type": "function"
    },
    {
      "constant": false,
      "inputs": [
        {
          "internalType": "address",
          "name": "_buyerId",
          "type": "address"
        }
      ],
      "name": "rejectBuyer",
      "outputs": [],
      "payable": false,
      "stateMutability": "nonpayable",
      "type": "function"
    },
    {
      "constant": false,
      "inputs": [
        {
          "internalType": "uint256",
          "name": "_landId",
          "type": "uint256"
        }
      ],
      "name": "verifyLand",
      "outputs": [],
      "payable": false,
      "stateMutability": "nonpayable",
      "type": "function"
    },
    {
      "constant": true,
      "inputs": [
        {
          "internalType": "uint256",
          "name": "_id",
          "type": "uint256"
        }
      ],
      "name": "isLandVerified",
      "outputs": [
        {
          "internalType": "bool",
          "name": "",
          "type": "bool"
        }
      ],
      "payable": false,
      "stateMutability": "view",
      "type": "function"
    },
    {
      "constant": true,
      "inputs": [
        {
          "internalType": "address",
          "name": "_id",
          "type": "address"
        }
      ],
      "name": "isVerified",
      "outputs": [
        {
          "internalType": "bool",
          "name": "",
          "type": "bool"
        }
      ],
      "payable": false,
      "stateMutability": "view",
      "type": "function"
    },
    {
      "constant": true,
      "inputs": [
        {
          "internalType": "address",
          "name": "_id",
          "type": "address"
        }
      ],
      "name": "isRejected",
      "outputs": [
        {
          "internalType": "bool",
          "name": "",
          "type": "bool"
        }
      ],
      "payable": false,
      "stateMutability": "view",
      "type": "function"
    },
    {
      "constant": true,
      "inputs": [
        {
          "internalType": "address",
          "name": "_id",
          "type": "address"
        }
      ],
      "name": "isSeller",
      "outputs": [
        {
          "internalType": "bool",
          "name": "",
          "type": "bool"
        }
      ],
      "payable": false,
      "stateMutability": "view",
      "type": "function"
    },
    {
      "constant": true,
      "inputs": [
        {
          "internalType": "address",
          "name": "_id",
          "type": "address"
        }
      ],
      "name": "isLandInspector",
      "outputs": [
        {
          "internalType": "bool",
          "name": "",
          "type": "bool"
        }
      ],
      "payable": false,
      "stateMutability": "view",
      "type": "function"
    },
    {
      "constant": true,
      "inputs": [
        {
          "internalType": "address",
          "name": "_id",
          "type": "address"
        }
      ],
      "name": "isBuyer",
      "outputs": [
        {
          "internalType": "bool",
          "name": "",
          "type": "bool"
        }
      ],
      "payable": false,
      "stateMutability": "view",
      "type": "function"
    },
    {
      "constant": true,
      "inputs": [
        {
          "internalType": "address",
          "name": "_id",
          "type": "address"
        }
      ],
      "name": "isRegistered",
      "outputs": [
        {
          "internalType": "bool",
          "name": "",
          "type": "bool"
        }
      ],
      "payable": false,
      "stateMutability": "view",
      "type": "function"
    },
    {
      "constant": false,
      "inputs": [
        {
          "internalType": "uint256",
          "name": "_area",
          "type": "uint256"
        },
        {
          "internalType": "string",
          "name": "_city",
          "type": "string"
        },
        {
          "internalType": "string",
          "name": "_state",
          "type": "string"
        },
        {
          "internalType": "uint256",
          "name": "landPrice",
          "type": "uint256"
        },
        {
          "internalType": "uint256",
          "name": "_propertyPID",
          "type": "uint256"
        },
        {
          "internalType": "uint256",
          "name": "_surveyNum",
          "type": "uint256"
        },
        {
          "internalType": "string",
          "name": "_ipfsHash",
          "type": "string"
        },
        {
          "internalType": "string",
          "name": "_document",
          "type": "string"
        }
      ],
      "name": "addLand",
      "outputs": [],
      "payable": false,
      "stateMutability": "nonpayable",
      "type": "function"
    },
    {
      "constant": false,
      "inputs": [
        {
          "internalType": "string",
          "name": "_name",
          "type": "string"
        },
        {
          "internalType": "uint256",
          "name": "_age",
          "type": "uint256"
        },
        {
          "internalType": "string",
          "name": "_aadharNumber",
          "type": "string"
        },
        {
          "internalType": "string",
          "name": "_panNumber",
          "type": "string"
        },
        {
          "internalType": "string",
          "name": "_landsOwned",
          "type": "string"
        },
        {
          "internalType": "string",
          "name": "_document",
          "type": "string"
        }
      ],
      "name": "registerSeller",
      "outputs": [],
      "payable": false,
      "stateMutability": "nonpayable",
      "type": "function"
    },
    {
      "constant": false,
      "inputs": [
        {
          "internalType": "string",
          "name": "_name",
          "type": "string"
        },
        {
          "internalType": "uint256",
          "name": "_age",
          "type": "uint256"
        },
        {
          "internalType": "string",
          "name": "_aadharNumber",
          "type": "string"
        },
        {
          "internalType": "string",
          "name": "_panNumber",
          "type": "string"
        },
        {
          "internalType": "string",
          "name": "_landsOwned",
          "type": "string"
        }
      ],
      "name": "updateSeller",
      "outputs": [],
      "payable": false,
      "stateMutability": "nonpayable",
      "type": "function"
    },
    {
      "constant": true,
      "inputs": [],
      "name": "getSeller",
      "outputs": [
        {
          "internalType": "address[]",
          "name": "",
          "type": "address[]"
        }
      ],
      "payable": false,
      "stateMutability": "view",
      "type": "function"
    },
    {
      "constant": true,
      "inputs": [
        {
          "internalType": "address",
          "name": "i",
          "type": "address"
        }
      ],
      "name": "getSellerDetails",
      "outputs": [
        {
          "internalType": "string",
          "name": "",
          "type": "string"
        },
        {
          "internalType": "uint256",
          "name": "",
          "type": "uint256"
        },
        {
          "internalType": "string",
          "name": "",
          "type": "string"
        },
        {
          "internalType": "string",
          "name": "",
          "type": "string"
        },
        {
          "internalType": "string",
          "name": "",
          "type": "string"
        },
        {
          "internalType": "string",
          "name": "",
          "type": "string"
        }
      ],
      "payable": false,
      "stateMutability": "view",
      "type": "function"
    },
    {
      "constant": false,
      "inputs": [
        {
          "internalType": "string",
          "name": "_name",
          "type": "string"
        },
        {
          "internalType": "uint256",
          "name": "_age",
          "type": "uint256"
        },
        {
          "internalType": "string",
          "name": "_city",
          "type": "string"
        },
        {
          "internalType": "string",
          "name": "_aadharNumber",
          "type": "string"
        },
        {
          "internalType": "string",
          "name": "_panNumber",
          "type": "string"
        },
        {
          "internalType": "string",
          "name": "_document",
          "type": "string"
        },
        {
          "internalType": "string",
          "name": "_email",
          "type": "string"
        }
      ],
      "name": "registerBuyer",
      "outputs": [],
      "payable": false,
      "stateMutability": "nonpayable",
      "type": "function"
    },
    {
      "constant": false,
      "inputs": [
        {
          "internalType": "string",
          "name": "_name",
          "type": "string"
        },
        {
          "internalType": "uint256",
          "name": "_age",
          "type": "uint256"
        },
        {
          "internalType": "string",
          "name": "_city",
          "type": "string"
        },
        {
          "internalType": "string",
          "name": "_aadharNumber",
          "type": "string"
        },
        {
          "internalType": "string",
          "name": "_email",
          "type": "string"
        },
        {
          "internalType": "string",
          "name": "_panNumber",
          "type": "string"
        }
      ],
      "name": "updateBuyer",
      "outputs": [],
      "payable": false,
      "stateMutability": "nonpayable",
      "type": "function"
    },
    {
      "constant": true,
      "inputs": [],
      "name": "getBuyer",
      "outputs": [
        {
          "internalType": "address[]",
          "name": "",
          "type": "address[]"
        }
      ],
      "payable": false,
      "stateMutability": "view",
      "type": "function"
    },
    {
      "constant": true,
      "inputs": [
        {
          "internalType": "address",
          "name": "i",
          "type": "address"
        }
      ],
      "name": "getBuyerDetails",
      "outputs": [
        {
          "internalType": "string",
          "name": "",
          "type": "string"
        },
        {
          "internalType": "string",
          "name": "",
          "type": "string"
        },
        {
          "internalType": "string",
          "name": "",
          "type": "string"
        },
        {
          "internalType": "string",
          "name": "",
          "type": "string"
        },
        {
          "internalType": "string",
          "name": "",
          "type": "string"
        },
        {
          "internalType": "uint256",
          "name": "",
          "type": "uint256"
        },
        {
          "internalType": "string",
          "name": "",
          "type": "string"
        }
      ],
      "payable": false,
      "stateMutability": "view",
      "type": "function"
    },
    {
      "constant": false,
      "inputs": [
        {
          "internalType": "address",
          "name": "_sellerId",
          "type": "address"
        },
        {
          "internalType": "uint256",
          "name": "_landId",
          "type": "uint256"
        }
      ],
      "name": "requestLand",
      "outputs": [],
      "payable": false,
      "stateMutability": "nonpayable",
      "type": "function"
    },
    {
      "constant": true,
      "inputs": [
        {
          "internalType": "uint256",
          "name": "i",
          "type": "uint256"
        }
      ],
      "name": "getRequestDetails",
      "outputs": [
        {
          "internalType": "address",
          "name": "",
          "type": "address"
        },
        {
          "internalType": "address",
          "name": "",
          "type": "address"
        },
        {
          "internalType": "uint256",
          "name": "",
          "type": "uint256"
        },
        {
          "internalType": "bool",
          "name": "",
          "type": "bool"
        }
      ],
      "payable": false,
      "stateMutability": "view",
      "type": "function"
    },
    {
      "constant": true,
      "inputs": [
        {
          "internalType": "uint256",
          "name": "_id",
          "type": "uint256"
        }
      ],
      "name": "isRequested",
      "outputs": [
        {
          "internalType": "bool",
          "name": "",
          "type": "bool"
        }
      ],
      "payable": false,
      "stateMutability": "view",
      "type": "function"
    },
    {
      "constant": true,
      "inputs": [
        {
          "internalType": "uint256",
          "name": "_id",
          "type": "uint256"
        }
      ],
      "name": "isApproved",
      "outputs": [
        {
          "internalType": "bool",
          "name": "",
          "type": "bool"
        }
      ],
      "payable": false,
      "stateMutability": "view",
      "type": "function"
    },
    {
      "constant": false,
      "inputs": [
        {
          "internalType": "uint256",
          "name": "_reqId",
          "type": "uint256"
        }
      ],
      "name": "approveRequest",
      "outputs": [],
      "payable": false,
      "stateMutability": "nonpayable",
      "type": "function"
    },
    {
      "constant": false,
      "inputs": [
        {
          "internalType": "uint256",
          "name": "_landId",
          "type": "uint256"
        },
        {
          "internalType": "address",
          "name": "_newOwner",
          "type": "address"
        }
      ],
      "name": "LandOwnershipTransfer",
      "outputs": [],
      "payable": false,
      "stateMutability": "nonpayable",
      "type": "function"
    },
    {
      "constant": true,
      "inputs": [
        {
          "internalType": "uint256",
          "name": "_landId",
          "type": "uint256"
        }
      ],
      "name": "isPaid",
      "outputs": [
        {
          "internalType": "bool",
          "name": "",
          "type": "bool"
        }
      ],
      "payable": false,
      "stateMutability": "view",
      "type": "function"
    },
    {
      "constant": false,
      "inputs": [
        {
          "internalType": "address payable",
          "name": "_receiver",
          "type": "address"
        },
        {
          "internalType": "uint256",
          "name": "_landId",
          "type": "uint256"
        }
      ],
      "name": "payment",
      "outputs": [],
      "payable": true,
      "stateMutability": "payable",
      "type": "function"
    },
    {
      "constant": false,
      "inputs": [
        {
          "internalType": "uint256",
          "name": "_landId",
          "type": "uint256"
        },
        {
          "internalType": "address",
          "name": "_heir",
          "type": "address"
        }
      ],
      "name": "designateHeir",
      "outputs": [],
      "payable": false,
      "stateMutability": "nonpayable",
      "type": "function"
    },
    {
      "constant": false,
      "inputs": [
        {
          "internalType": "uint256",
          "name": "_landId",
          "type": "uint256"
        }
      ],
      "name": "markDeceased",
      "outputs": [],
      "payable": false,
      "stateMutability": "nonpayable",
      "type": "function"
    },
    {
      "constant": false,
      "inputs": [
        {
          "internalType": "uint256",
          "name": "_landId",
          "type": "uint256"
        }
      ],
      "name": "claimInheritance",
      "outputs": [],
      "payable": false,
      "stateMutability": "nonpayable",
      "type": "function"
    },
    {
      "constant": true,
      "inputs": [
        {
          "internalType": "uint256",
          "name": "_landId",
          "type": "uint256"
        }
      ],
      "name": "getHeir",
      "outputs": [
        {
          "internalType": "address",
          "name": "",
          "type": "address"
        }
      ],
      "payable": false,
      "stateMutability": "view",
      "type": "function"
    },
    {
      "constant": true,
      "inputs": [
        {
          "internalType": "uint256",
          "name": "_landId",
          "type": "uint256"
        }
      ],
      "name": "isDeceased",
      "outputs": [
        {
          "internalType": "bool",
          "name": "",
          "type": "bool"
        }
      ],
      "payable": false,
      "stateMutability": "view",
      "type": "function"
    }
  ],
  "bytecode": "0x60806040523480156200001157600080fd5b5060138054600160a060020a03191633179055604080518082018252600b81527f496e73706563746f7220310000000000000000000000000000000000000000006020808301919091528251808401909352600e83527f54656873696c204d616e6167657200000000000000000000000000000000000090830152620000a391602d90640100000000620000a9810204565b620001d7565b601780546001908101918290556040805160808101825283815260208082018881528284018890526060830187905260009586528482529290942081518155915180519194929362000102939085019291019062000132565b5060408201516002820155606082015180516200012a91600384019160209091019062000132565b505050505050565b828054600181600116156101000203166002900490600052602060002090601f016020900481019282601f106200017557805160ff1916838001178555620001a5565b82800160010185558215620001a5579182015b82811115620001a557825182559160200191906001019062000188565b50620001b3929150620001b7565b5090565b620001d491905b80821115620001b35760008155600101620001be565b90565b6142ad80620001e76000396000f3fe6080604052600436106104ee576000357c0100000000000000000000000000000000000000000000000000000000900480639dc1bfa911610296578063d7d1bbdb1161017b578063e530c400116100f3578063f34d4c63116100a7578063f58f85b51161008c578063f58f85b514610e2a578063f9c43bdf14610e4a578063fbfa4b7f14610e6a576104ee565b8063f34d4c6314610dda578063f3f0c21814610e0a576104ee565b8063ee95feaf116100d8578063ee95feaf14610d85578063f0d3a9df14610da5578063f2aa821814610dba576104ee565b8063e530c40014610d45578063e757223014610d65576104ee565b8063def936c31161014a578063e1ecc7941161012f578063e1ecc79414610cd0578063e261f1e514610cf0578063e4b2611514610d25576104ee565b8063def936c314610c80578063e165af8714610cb0576104ee565b8063d7d1bbdb14610c03578063dbd0e1b614610c23578063dd9d122d14610c38578063dec091ad14610c4d576104ee565b8063bed403c71161020e578063c560b4e5116101dd578063cee26ed5116101c2578063cee26ed514610ba3578063d1760e6014610bc3578063d713065114610be3576104ee565b8063c560b4e514610b63578063cd392a8314610b83576104ee565b8063bed403c714610ae3578063c1191ebd14610b03578063c3c5a54714610b23578063c3cabd5714610b43576104ee565b8063ab51707411610265578063b3c8fe851161024a578063b3c8fe8514610a7c578063b9209e3314610aae578063ba49a08c14610ace576104ee565b8063ab51707414610a18578063b0a5dcd314610a4c576104ee565b80639dc1bfa914610998578063a47d4c02146109b8578063a4a0f6c0146109d8578063a6dc41fb146109f8576104ee565b8063603daf9a116103d7578063835465011161034f5780639338364811610303578063975c2308116102e8578063975c230814610943578063989376b4146109635780639ae9711e14610983576104ee565b8063933836481461090e578063941e24261461092e576104ee565b806389d213541161033457806389d21354146108ae5780638fe8b842146108ce57806392ccb8ff146108ee576104ee565b8063835465011461086e5780638965cde11461088e576104ee565b80636814800b116103a65780636cbf6cf81161038b5780636cbf6cf81461080e57806371bf7e301461082e5780637910867b1461084e576104ee565b80636814800b146107bb57806368cfe6ee146107db576104ee565b8063603daf9a1461074657806363f17143146107685780636490c7a81461078857806367a09c23146107a8576104ee565b80632a55feec1161046a57806344c9af28116104395780634daa9dae1161041e5780634daa9dae146106e65780634e2cba0914610706578063601e7c3414610726576104ee565b806344c9af28146106a657806348a46bd3146106c6576104ee565b80632a55feec146106315780632e0ff449146106515780633410452a146106715780633f9b250a14610686576104ee565b8063170f3909116104c15780631a07f76e116104a65780631a07f76e146105cf5780631c9afd0f146105ef5780632607aafa14610604576104ee565b8063170f39091461058d5780631869a38b146105af576104ee565b806307d56ac0146104f357806311ce462c14610529578063155fec721461054b57806316d9d66614610578575b600080fd5b3480156104ff57600080fd5b5061051361050e3660046138de565b610e7f565b6040516105209190614010565b60405180910390f35b34801561053557600080fd5b506105496105443660046136b5565b610e97565b005b34801561055757600080fd5b5061056b6105663660046138de565b610fa7565b6040516105209190613e95565b34801561058457600080fd5b50610513610fc6565b34801561059957600080fd5b506105a2610fcd565b6040516105209190613cf9565b3480156105bb57600080fd5b506105a26105ca3660046138de565b610fdc565b3480156105db57600080fd5b5061056b6105ea3660046138de565b610ff7565b3480156105fb57600080fd5b5061051361100c565b34801561061057600080fd5b5061062461061f3660046138de565b611012565b6040516105209190613ea3565b34801561063d57600080fd5b5061056b61064c366004613581565b6110b4565b34801561065d57600080fd5b5061054961066c3660046138de565b6110dd565b34801561067d57600080fd5b50610513611179565b34801561069257600080fd5b506106246106a13660046138de565b61117f565b3480156106b257600080fd5b506106246106c13660046138de565b6111ea565b3480156106d257600080fd5b5061056b6106e1366004613581565b611255565b3480156106f257600080fd5b5061056b6107013660046138de565b6112a1565b34801561071257600080fd5b506105496107213660046137b3565b6112b6565b34801561073257600080fd5b5061056b610741366004613581565b6114bd565b34801561075257600080fd5b5061075b6114d2565b6040516105209190613e7d565b34801561077457600080fd5b5061056b610783366004613581565b611534565b34801561079457600080fd5b506105136107a33660046138de565b611549565b6105496107b63660046135a7565b61155e565b3480156107c757600080fd5b506105496107d6366004613581565b6115ab565b3480156107e757600080fd5b506107fb6107f6366004613581565b611610565b6040516105209796959493929190613eb4565b34801561081a57600080fd5b5061056b6108293660046138de565b6119c1565b34801561083a57600080fd5b506105496108493660046138fc565b6119e0565b34801561085a57600080fd5b5061056b6108693660046138de565b611ae2565b34801561087a57600080fd5b5061056b6108893660046138de565b611b01565b34801561089a57600080fd5b506105496108a9366004613581565b611b16565b3480156108ba57600080fd5b5061056b6108c93660046138de565b611b7b565b3480156108da57600080fd5b506105a26108e93660046138de565b611b90565b3480156108fa57600080fd5b506105496109093660046138de565b611bab565b34801561091a57600080fd5b506105496109293660046136b5565b611cc9565b34801561093a57600080fd5b50610513611eab565b34801561094f57600080fd5b506105a261095e3660046138de565b611eb1565b34801561096f57600080fd5b5061056b61097e366004613581565b611ecc565b34801561098f57600080fd5b50610513611ee1565b3480156109a457600080fd5b506105a26109b33660046138de565b611ee7565b3480156109c457600080fd5b5061056b6109d3366004613581565b611f02565b3480156109e457600080fd5b506105136109f33660046138de565b611f17565b348015610a0457600080fd5b5061056b610a13366004613581565b611f2c565b348015610a2457600080fd5b50610a38610a33366004613581565b611f41565b604051610520989796959493929190613ddd565b348015610a5857600080fd5b50610a6c610a673660046138de565b6122cd565b6040516105209493929190614054565b348015610a8857600080fd5b50610a9c610a97366004613581565b612301565b60405161052096959493929190613f36565b348015610aba57600080fd5b5061056b610ac9366004613581565b612617565b348015610ada57600080fd5b50610513612662565b348015610aef57600080fd5b50610549610afe3660046138fc565b612668565b348015610b0f57600080fd5b5061056b610b1e3660046138de565b612702565b348015610b2f57600080fd5b5061056b610b3e366004613581565b612717565b348015610b4f57600080fd5b5061056b610b5e3660046138de565b612740565b348015610b6f57600080fd5b50610549610b7e3660046135e1565b612755565b348015610b8f57600080fd5b5061056b610b9e3660046138de565b61283c565b348015610baf57600080fd5b506105a2610bbe3660046138de565b61285b565b348015610bcf57600080fd5b50610549610bde366004613581565b612882565b348015610bef57600080fd5b50610624610bfe3660046138de565b6128e7565b348015610c0f57600080fd5b50610549610c1e3660046138de565b612955565b348015610c2f57600080fd5b5061075b612992565b348015610c4457600080fd5b506105136129f2565b348015610c5957600080fd5b50610c6d610c68366004613581565b6129f8565b6040516105209796959493929190613d53565b348015610c8c57600080fd5b50610ca0610c9b3660046138de565b612cf1565b6040516105209493929190614089565b348015610cbc57600080fd5b5061056b610ccb366004613581565b612e2f565b348015610cdc57600080fd5b50610549610ceb366004613581565b612e58565b348015610cfc57600080fd5b50610d10610d0b3660046138de565b612ebd565b604051610520999897969594939291906140d4565b348015610d3157600080fd5b5061056b610d40366004613581565b61312a565b348015610d5157600080fd5b50610549610d6036600461392c565b61313f565b348015610d7157600080fd5b50610513610d803660046138de565b613295565b348015610d9157600080fd5b5061056b610da0366004613581565b6132aa565b348015610db157600080fd5b506105136132d3565b348015610dc657600080fd5b506105a2610dd53660046138de565b6132d9565b348015610de657600080fd5b50610dfa610df53660046138de565b6132e6565b6040516105209493929190613d15565b348015610e1657600080fd5b50610549610e253660046135a7565b613328565b348015610e3657600080fd5b5061056b610e45366004613581565b613431565b348015610e5657600080fd5b50610549610e653660046138de565b613446565b348015610e7657600080fd5b50610513613473565b6000818152602081905260409020600501545b919050565b3360009081526005602052604090205460ff168015610ecc575033600081815260036020526040902054600160a060020a0316145b610ed557600080fd5b3360009081526003602090815260409091208751610efb92600190920191890190613479565b50336000908152600360208181526040909220600281018890558651610f2993919092019190870190613479565b503360009081526003602090815260409091208451610f5092600490920191860190613479565b503360009081526003602090815260409091208351610f7792600790920191850190613479565b503360009081526003602090815260409091208251610f9e92600590920191840190613479565b50505050505050565b6000818152600f602052604081205460ff1615610e9257506001610e92565b6016545b90565b601354600160a060020a031681565b6000908152600d6020526040902054600160a060020a031690565b60106020526000908152604090205460ff1681565b60165481565b6000818152602081815260409182902060070180548351601f60026000196101006001861615020190931692909204918201849004840281018401909452808452606093928301828280156110a85780601f1061107d576101008083540402835291602001916110a8565b820191906000526020600020905b81548152906001019060200180831161108b57829003601f168201915b50505050509050919050565b600160a060020a03811660009081526007602052604081205460ff1615610e9257506001610e92565b6110e633612e2f565b611125576040517f08c379a000000000000000000000000000000000000000000000000000000000815260040161111c90613fd0565b60405180910390fd5b60008181526012602052604090819020805460ff19166001179055517f231a51b7b8d3458db3bbbd7e32118169e3fb1121c90040c8d6e4cf9725396d189061116e908390614010565b60405180910390a150565b601a5490565b6000818152602081815260409182902060080180548351601f60026000196101006001861615020190931692909204918201849004840281018401909452808452606093928301828280156110a85780601f1061107d576101008083540402835291602001916110a8565b6000818152602081815260409182902060030180548351601f60026000196101006001861615020190931692909204918201849004840281018401909452808452606093928301828280156110a85780601f1061107d576101008083540402835291602001916110a8565b600160a060020a03811660009081526009602052604081205460ff16806112945750600160a060020a0382166000908152600b602052604090205460ff165b15610e9257506001610e92565b600f6020526000908152604090205460ff1681565b3360009081526005602052604090205460ff16156112d357600080fd5b3360008181526005602090815260408083208054600160ff1991821681179092556007845282852080549091168217905560198054820190558151610100810183528581528084018d81528184018d9052606082018c9052608082018b905260a082018a905260c0820189905260e0820188905295855260038452919093208151815473ffffffffffffffffffffffffffffffffffffffff1916600160a060020a03909116178155935180519194936113929390850192910190613479565b5060408201516002820155606082015180516113b8916003840191602090910190613479565b50608082015180516113d4916004840191602090910190613479565b5060a082015180516113f0916005840191602090910190613479565b5060c0820151805161140c916006840191602090910190613479565b5060e08201518051611428916007840191602090910190613479565b5050601580546001810182556000919091527f55f448fdea98c4d29eb340757ef0a66cd03dbb9538908a6a81d96026b71ec47501805473ffffffffffffffffffffffffffffffffffffffff1916339081179091556040517f478f5152d8fc568db3f8de9fb402fd9d98a1a7541ecfe434e59cf574fbfc552492506114ac9190613d07565b60405180910390a150505050505050565b60066020526000908152604090205460ff1681565b6060601580548060200260200160405190810160405280929190818152602001828054801561152a57602002820191906000526020600020905b8154600160a060020a0316815260019091019060200180831161150c575b5050505050905090565b60096020526000908152604090205460ff1681565b60009081526020819052604090206001015490565b600081815260106020526040808220805460ff1916600117905551600160a060020a038416913480156108fc02929091818181858888f193505050501580156115a657600080fd5b505050565b6115b433612e2f565b6115bd57600080fd5b600160a060020a0381166000908152600a602052604090819020805460ff19166001179055517f6a6455914f452787eb3985452aceedc1000fb545e394eb3b370e3d08958e0a5b9061116e908390613cf9565b600160a060020a03811660009081526003602081815260408084206002808201546001808401805486519281161561010002600019011693909304601f810187900487028201870190955284815260609788978897889788979396889690959385019460058101946006820194600783019460049093019289918301828280156116db5780601f106116b0576101008083540402835291602001916116db565b820191906000526020600020905b8154815290600101906020018083116116be57829003601f168201915b5050895460408051602060026001851615610100026000190190941693909304601f8101849004840282018401909252818152959c508b9450925084019050828280156117695780601f1061173e57610100808354040283529160200191611769565b820191906000526020600020905b81548152906001019060200180831161174c57829003601f168201915b5050885460408051602060026001851615610100026000190190941693909304601f8101849004840282018401909252818152959b508a9450925084019050828280156117f75780601f106117cc576101008083540402835291602001916117f7565b820191906000526020600020905b8154815290600101906020018083116117da57829003601f168201915b5050875460408051602060026001851615610100026000190190941693909304601f8101849004840282018401909252818152959a50899450925084019050828280156118855780601f1061185a57610100808354040283529160200191611885565b820191906000526020600020905b81548152906001019060200180831161186857829003601f168201915b5050865460408051602060026001851615610100026000190190941693909304601f8101849004840282018401909252818152959950889450925084019050828280156119135780601f106118e857610100808354040283529160200191611913565b820191906000526020600020905b8154815290600101906020018083116118f657829003601f168201915b5050845460408051602060026001851615610100026000190190941693909304601f8101849004840282018401909252818152959850869450925084019050828280156119a15780601f10611976576101008083540402835291602001916119a1565b820191906000526020600020905b81548152906001019060200180831161198457829003601f168201915b505050505090509650965096509650965096509650919395979092949650565b6000818152600c602052604081205460ff1615610e9257506001610e92565b6000828152600d6020526040902054600160a060020a03163314611a30576040517f08c379a000000000000000000000000000000000000000000000000000000000815260040161111c90613fe0565b600160a060020a038116611a70576040517f08c379a000000000000000000000000000000000000000000000000000000000815260040161111c90613ff0565b60008281526011602052604090819020805473ffffffffffffffffffffffffffffffffffffffff1916600160a060020a038416179055517fab5deb11f9e259b8461465b4dae71d1a668a7cf37831298437bda6535ed9433390611ad6908490849061401e565b60405180910390a15050565b6000818152600e602052604081205460ff1615610e9257506001610e92565b600c6020526000908152604090205460ff1681565b611b1f33612e2f565b611b2857600080fd5b600160a060020a0381166000908152600b602052604090819020805460ff19166001179055517faf77f8960cf590e245ec8b6d41c193a5dcacad8986ae4eb57ac9e5be7b6af0319061116e908390613cf9565b600e6020526000908152604090205460ff1681565b601160205260009081526040902054600160a060020a031681565b600081815260116020526040902054600160a060020a03163314611bfb576040517f08c379a000000000000000000000000000000000000000000000000000000000815260040161111c90614000565b60008181526012602052604090205460ff161515600114611c48576040517f08c379a000000000000000000000000000000000000000000000000000000000815260040161111c90613fc0565b6000818152600d6020908152604080832080543373ffffffffffffffffffffffffffffffffffffffff1991821681179092556011845282852080549091169055601290925291829020805460ff1916905590517f2edeba758f9de0f2e37457a533bc3cea5345b89fe919eb96dce18ba028b7d63e9161116e91849190614039565b3360009081526005602052604090205460ff1615611ce657600080fd5b3360008181526005602090815260408083208054600160ff199182168117909255600684528285208054909116821790556018805482019055815160e0810183528581528084018c81528184018c9052606082018b9052608082018a905260a0820189905260c0820188905295855260028452919093208151815473ffffffffffffffffffffffffffffffffffffffff1916600160a060020a0390911617815593518051919493611d9d9390850192910190613479565b506040820151600282015560608201518051611dc3916003840191602090910190613479565b5060808201518051611ddf916004840191602090910190613479565b5060a08201518051611dfb916005840191602090910190613479565b5060c08201518051611e17916006840191602090910190613479565b5050601480546001810182556000919091527fce6d7b5282bd9a3661ae061feed1dbda4e52ab073b1f9285be6e155d9c38d4ec01805473ffffffffffffffffffffffffffffffffffffffff1916339081179091556040517f478f5152d8fc568db3f8de9fb402fd9d98a1a7541ecfe434e59cf574fbfc55249250611e9b9190613d07565b60405180910390a1505050505050565b60175481565b600090815260116020526040902054600160a060020a031690565b600b6020526000908152604090205460ff1681565b60185481565b600d60205260009081526040902054600160a060020a031681565b60076020526000908152604090205460ff1681565b60009081526020819052604090206006015490565b600a6020526000908152604090205460ff1681565b6003602090815260009182526040918290208054600180830180548651600261010094831615949094026000190190911692909204601f8101869004860283018601909652858252600160a060020a03909216949293909290830182828015611feb5780601f10611fc057610100808354040283529160200191611feb565b820191906000526020600020905b815481529060010190602001808311611fce57829003601f168201915b505050506002838101546003850180546040805160206001841615610100026000190190931695909504601f8101839004830286018301909152808552959692959294509091908301828280156120835780601f1061205857610100808354040283529160200191612083565b820191906000526020600020905b81548152906001019060200180831161206657829003601f168201915b5050505060048301805460408051602060026001851615610100026000190190941693909304601f81018490048402820184019092528181529495949350908301828280156121135780601f106120e857610100808354040283529160200191612113565b820191906000526020600020905b8154815290600101906020018083116120f657829003601f168201915b5050505060058301805460408051602060026001851615610100026000190190941693909304601f81018490048402820184019092528181529495949350908301828280156121a35780601f10612178576101008083540402835291602001916121a3565b820191906000526020600020905b81548152906001019060200180831161218657829003601f168201915b5050505060068301805460408051602060026001851615610100026000190190941693909304601f81018490048402820184019092528181529495949350908301828280156122335780601f1061220857610100808354040283529160200191612233565b820191906000526020600020905b81548152906001019060200180831161221657829003601f168201915b5050505060078301805460408051602060026001851615610100026000190190941693909304601f81018490048402820184019092528181529495949350908301828280156122c35780601f10612298576101008083540402835291602001916122c3565b820191906000526020600020905b8154815290600101906020018083116122a657829003601f168201915b5050505050905088565b60046020526000908152604090208054600182015460028301546003909301549192600160a060020a039182169291169084565b600160a060020a0381166000908152600260208181526040808420808401546001808301805485519281161561010002600019011696909604601f8101869004860282018601909452838152606096958795869586958695939460038201936004830193600584019360060192918891908301828280156123c35780601f10612398576101008083540402835291602001916123c3565b820191906000526020600020905b8154815290600101906020018083116123a657829003601f168201915b5050875460408051602060026001851615610100026000190190941693909304601f8101849004840282018401909252818152959b50899450925084019050828280156124515780601f1061242657610100808354040283529160200191612451565b820191906000526020600020905b81548152906001019060200180831161243457829003601f168201915b5050865460408051602060026001851615610100026000190190941693909304601f8101849004840282018401909252818152959950889450925084019050828280156124df5780601f106124b4576101008083540402835291602001916124df565b820191906000526020600020905b8154815290600101906020018083116124c257829003601f168201915b5050855460408051602060026001851615610100026000190190941693909304601f81018490048402820184019092528181529598508794509250840190508282801561256d5780601f106125425761010080835404028352916020019161256d565b820191906000526020600020905b81548152906001019060200180831161255057829003601f168201915b5050845460408051602060026001851615610100026000190190941693909304601f8101849004840282018401909252818152959750869450925084019050828280156125fb5780601f106125d0576101008083540402835291602001916125fb565b820191906000526020600020905b8154815290600101906020018083116125de57829003601f168201915b5050505050905095509550955095509550955091939550919395565b600160a060020a03811660009081526008602052604081205460ff16806112945750600160a060020a0382166000908152600a602052604090205460ff1615610e9257506001610e92565b60195481565b61267133612e2f565b61267a57600080fd5b60008281526010602052604090205460ff1615156001146126c7576040517f08c379a000000000000000000000000000000000000000000000000000000000815260040161111c90613fb0565b6000918252600d6020526040909120805473ffffffffffffffffffffffffffffffffffffffff1916600160a060020a03909216919091179055565b60126020526000908152604090205460ff1681565b600160a060020a03811660009081526005602052604081205460ff1615610e9257506001610e92565b60009081526012602052604090205460ff1690565b3360009081526005602052604090205460ff16801561278a575033600081815260026020526040902054600160a060020a0316145b61279357600080fd5b33600090815260026020908152604090912086516127b992600190920191880190613479565b5033600090815260026020818152604090922090810186905584516127e692600390920191860190613479565b50336000908152600260209081526040909120835161280d92600490920191850190613479565b50336000908152600260209081526040909120825161283492600590920191840190613479565b505050505050565b60008181526010602052604081205460ff1615610e9257506001610e92565b6014818154811061286857fe5b600091825260209091200154600160a060020a0316905081565b61288b33612e2f565b61289457600080fd5b600160a060020a03811660009081526008602052604090819020805460ff19166001179055517f6a6455914f452787eb3985452aceedc1000fb545e394eb3b370e3d08958e0a5b9061116e908390613cf9565b600081815260208181526040918290206002908101805484516001821615610100026000190190911692909204601f810184900484028301840190945283825260609391929091908301828280156110a85780601f1061107d576101008083540402835291602001916110a8565b61295e336132aa565b801561296e575061296e33612617565b61297757600080fd5b6000908152600e60205260409020805460ff19166001179055565b6060601480548060200260200160405190810160405280929190818152602001828054801561152a57602002820191906000526020600020908154600160a060020a0316815260019091019060200180831161150c575050505050905090565b60185490565b6002602081815260009283526040928390208054600180830180548751601f60001994831615610100029490940190911696909604918201859004850286018501909652808552600160a060020a0390911694919392830182828015612a9f5780601f10612a7457610100808354040283529160200191612a9f565b820191906000526020600020905b815481529060010190602001808311612a8257829003601f168201915b505050506002838101546003850180546040805160206001841615610100026000190190931695909504601f810183900483028601830190915280855295969295929450909190830182828015612b375780601f10612b0c57610100808354040283529160200191612b37565b820191906000526020600020905b815481529060010190602001808311612b1a57829003601f168201915b5050505060048301805460408051602060026001851615610100026000190190941693909304601f8101849004840282018401909252818152949594935090830182828015612bc75780601f10612b9c57610100808354040283529160200191612bc7565b820191906000526020600020905b815481529060010190602001808311612baa57829003601f168201915b5050505060058301805460408051602060026001851615610100026000190190941693909304601f8101849004840282018401909252818152949594935090830182828015612c575780601f10612c2c57610100808354040283529160200191612c57565b820191906000526020600020905b815481529060010190602001808311612c3a57829003601f168201915b5050505060068301805460408051602060026001851615610100026000190190941693909304601f8101849004840282018401909252818152949594935090830182828015612ce75780601f10612cbc57610100808354040283529160200191612ce7565b820191906000526020600020905b815481529060010190602001808311612cca57829003601f168201915b5050505050905087565b600160208181526000928352604092839020805481840180548651600296821615610100026000190190911695909504601f81018590048502860185019096528585529094919392909190830182828015612d8d5780601f10612d6257610100808354040283529160200191612d8d565b820191906000526020600020905b815481529060010190602001808311612d7057829003601f168201915b505050506002838101546003850180546040805160206001841615610100026000190190931695909504601f810183900483028601830190915280855295969295929450909190830182828015612e255780601f10612dfa57610100808354040283529160200191612e25565b820191906000526020600020905b815481529060010190602001808311612e0857829003601f168201915b5050505050905084565b601354600090600160a060020a0383811691161415612e5057506001610e92565b506000610e92565b612e6133612e2f565b612e6a57600080fd5b600160a060020a03811660009081526009602052604090819020805460ff19166001179055517faf77f8960cf590e245ec8b6d41c193a5dcacad8986ae4eb57ac9e5be7b6af0319061116e908390613cf9565b6000602081815291815260409081902080546001808301546002808501805487519481161561010002600019011691909104601f81018890048802840188019096528583529295909491929190830182828015612f5b5780601f10612f3057610100808354040283529160200191612f5b565b820191906000526020600020905b815481529060010190602001808311612f3e57829003601f168201915b5050505060038301805460408051602060026001851615610100026000190190941693909304601f8101849004840282018401909252818152949594935090830182828015612feb5780601f10612fc057610100808354040283529160200191612feb565b820191906000526020600020905b815481529060010190602001808311612fce57829003601f168201915b505050600484015460058501546006860154600787018054604080516020601f600260001961010060018816150201909516949094049384018190048102820181019092528281529899959894975092955090918301828280156130905780601f1061306557610100808354040283529160200191613090565b820191906000526020600020905b81548152906001019060200180831161307357829003601f168201915b5050505060088301805460408051602060026001851615610100026000190190941693909304601f81018490048402820184019092528181529495949350908301828280156131205780601f106130f557610100808354040283529160200191613120565b820191906000526020600020905b81548152906001019060200180831161310357829003601f168201915b5050505050905089565b60086020526000908152604090205460ff1681565b613148336132aa565b8015613158575061315833612617565b61316157600080fd5b60168054600190810191829055604080516101208101825283815260208082018d81528284018d8152606084018d9052608084018c905260a084018b905260c084018a905260e08401899052610100840188905260009687528683529390952082518155945193850193909355905180519193926131e792600285019290910190613479565b5060608201518051613203916003840191602090910190613479565b506080820151600482015560a0820151600582015560c0820151600682015560e0820151805161323d916007840191602090910190613479565b50610100820151805161325a916008840191602090910190613479565b50506016546000908152600d60205260409020805473ffffffffffffffffffffffffffffffffffffffff191633179055505050505050505050565b60009081526020819052604090206004015490565b600160a060020a03811660009081526006602052604081205460ff1615610e9257506001610e92565b60195490565b6015818154811061286857fe5b600090815260046020908152604080832060018101546002820154600390920154600e9094529190932054600160a060020a0391821694919093169260ff1690565b613331336110b4565b8015613341575061334133612617565b61334a57600080fd5b601a8054600190810180835560408051608081018252828152600160a060020a03808816602080840191825233848601908152606085018a8152600097885260048352868820955186559251858901805491861673ffffffffffffffffffffffffffffffffffffffff199283161790559051600286018054919095169116179092555160039092019190915584548352600e8152818320805460ff1990811690915594548352600f9052908190208054909316909117909155517fc67eb70629da758128cec22f7e36ad0676066ad4df9b66e8ba58a30c1ab4075b90611ad6908490613cf9565b60056020526000908152604090205460ff1681565b61344f33612e2f565b61345857600080fd5b6000908152600c60205260409020805460ff19166001179055565b601a5481565b828054600181600116156101000203166002900490600052602060002090601f016020900481019282601f106134ba57805160ff19168380011785556134e7565b828001600101855582156134e7579182015b828111156134e75782518255916020019190600101906134cc565b506134f39291506134f7565b5090565b610fca91905b808211156134f357600081556001016134fd565b803561351c8161424a565b92915050565b600082601f83011261353357600080fd5b81356135466135418261419c565b614175565b9150808252602083016020830185838301111561356257600080fd5b61356d838284614204565b50505092915050565b803561351c81614261565b60006020828403121561359357600080fd5b600061359f8484613511565b949350505050565b600080604083850312156135ba57600080fd5b60006135c68585613511565b92505060206135d785828601613576565b9150509250929050565b600080600080600060a086880312156135f957600080fd5b853567ffffffffffffffff81111561361057600080fd5b61361c88828901613522565b955050602061362d88828901613576565b945050604086013567ffffffffffffffff81111561364a57600080fd5b61365688828901613522565b935050606086013567ffffffffffffffff81111561367357600080fd5b61367f88828901613522565b925050608086013567ffffffffffffffff81111561369c57600080fd5b6136a888828901613522565b9150509295509295909350565b60008060008060008060c087890312156136ce57600080fd5b863567ffffffffffffffff8111156136e557600080fd5b6136f189828a01613522565b965050602061370289828a01613576565b955050604087013567ffffffffffffffff81111561371f57600080fd5b61372b89828a01613522565b945050606087013567ffffffffffffffff81111561374857600080fd5b61375489828a01613522565b935050608087013567ffffffffffffffff81111561377157600080fd5b61377d89828a01613522565b92505060a087013567ffffffffffffffff81111561379a57600080fd5b6137a689828a01613522565b9150509295509295509295565b600080600080600080600060e0888a0312156137ce57600080fd5b873567ffffffffffffffff8111156137e557600080fd5b6137f18a828b01613522565b97505060206138028a828b01613576565b965050604088013567ffffffffffffffff81111561381f57600080fd5b61382b8a828b01613522565b955050606088013567ffffffffffffffff81111561384857600080fd5b6138548a828b01613522565b945050608088013567ffffffffffffffff81111561387157600080fd5b61387d8a828b01613522565b93505060a088013567ffffffffffffffff81111561389a57600080fd5b6138a68a828b01613522565b92505060c088013567ffffffffffffffff8111156138c357600080fd5b6138cf8a828b01613522565b91505092959891949750929550565b6000602082840312156138f057600080fd5b600061359f8484613576565b6000806040838503121561390f57600080fd5b600061391b8585613576565b92505060206135d785828601613511565b600080600080600080600080610100898b03121561394957600080fd5b60006139558b8b613576565b985050602089013567ffffffffffffffff81111561397257600080fd5b61397e8b828c01613522565b975050604089013567ffffffffffffffff81111561399b57600080fd5b6139a78b828c01613522565b96505060606139b88b828c01613576565b95505060806139c98b828c01613576565b94505060a06139da8b828c01613576565b93505060c089013567ffffffffffffffff8111156139f757600080fd5b613a038b828c01613522565b92505060e089013567ffffffffffffffff811115613a2057600080fd5b613a2c8b828c01613522565b9150509295985092959890939650565b6000613a488383613a5f565b505060200190565b613a59816141f3565b82525050565b613a59816141d7565b6000613a73826141ca565b613a7d81856141ce565b9350613a88836141c4565b8060005b83811015613ab6578151613aa08882613a3c565b9750613aab836141c4565b925050600101613a8c565b509495945050505050565b613a59816141e2565b6000613ad5826141ca565b613adf81856141ce565b9350613aef818560208601614210565b613af881614240565b9093019392505050565b6000613b0f6029836141ce565b7f5472616e73666572206661696c65643a204275796572207061796d656e74206981527f732070656e64696e670000000000000000000000000000000000000000000000602082015260400192915050565b6000613b6e601f836141ce565b7f4f776e6572206973206e6f74206d61726b656420617320646563656173656400815260200192915050565b6000613ba76028836141ce565b7f4f6e6c79204c616e6420496e73706563746f722063616e206d61726b2061732081527f6465636561736564000000000000000000000000000000000000000000000000602082015260400192915050565b6000613c066029836141ce565b7f4f6e6c7920746865206c616e64206f776e65722063616e2064657369676e617481527f6520616e20686569720000000000000000000000000000000000000000000000602082015260400192915050565b6000613c65601b836141ce565b7f4865697220616464726573732063616e6e6f74206265207a65726f0000000000815260200192915050565b6000613c9e6022836141ce565b7f4f6e6c79207468652064657369676e6174656420686569722063616e20636c6181527f696d000000000000000000000000000000000000000000000000000000000000602082015260400192915050565b613a5981610fca565b6020810161351c8284613a5f565b6020810161351c8284613a50565b60808101613d238287613a5f565b613d306020830186613a5f565b613d3d6040830185613cf0565b613d4a6060830184613ac1565b95945050505050565b60e08101613d61828a613a5f565b8181036020830152613d738189613aca565b9050613d826040830188613cf0565b8181036060830152613d948187613aca565b90508181036080830152613da88186613aca565b905081810360a0830152613dbc8185613aca565b905081810360c0830152613dd08184613aca565b9998505050505050505050565b6101008101613dec828b613a5f565b8181036020830152613dfe818a613aca565b9050613e0d6040830189613cf0565b8181036060830152613e1f8188613aca565b90508181036080830152613e338187613aca565b905081810360a0830152613e478186613aca565b905081810360c0830152613e5b8185613aca565b905081810360e0830152613e6f8184613aca565b9a9950505050505050505050565b60208082528101613e8e8184613a68565b9392505050565b6020810161351c8284613ac1565b60208082528101613e8e8184613aca565b60e08082528101613ec5818a613aca565b90508181036020830152613ed98189613aca565b90508181036040830152613eed8188613aca565b90508181036060830152613f018187613aca565b90508181036080830152613f158186613aca565b9050613f2460a0830185613cf0565b81810360c0830152613dd08184613aca565b60c08082528101613f478189613aca565b9050613f566020830188613cf0565b8181036040830152613f688187613aca565b90508181036060830152613f7c8186613aca565b90508181036080830152613f908185613aca565b905081810360a0830152613fa48184613aca565b98975050505050505050565b6020808252810161351c81613b02565b6020808252810161351c81613b61565b6020808252810161351c81613b9a565b6020808252810161351c81613bf9565b6020808252810161351c81613c58565b6020808252810161351c81613c91565b6020810161351c8284613cf0565b6040810161402c8285613cf0565b613e8e6020830184613a5f565b604081016140478285613cf0565b613e8e6020830184613a50565b608081016140628287613cf0565b61406f6020830186613a5f565b61407c6040830185613a5f565b613d4a6060830184613cf0565b608081016140978287613cf0565b81810360208301526140a98186613aca565b90506140b86040830185613cf0565b81810360608301526140ca8184613aca565b9695505050505050565b61012081016140e3828c613cf0565b6140f0602083018b613cf0565b8181036040830152614102818a613aca565b905081810360608301526141168189613aca565b90506141256080830188613cf0565b61413260a0830187613cf0565b61413f60c0830186613cf0565b81810360e08301526141518185613aca565b90508181036101008301526141668184613aca565b9b9a5050505050505050505050565b60405181810167ffffffffffffffff8111828210171561419457600080fd5b604052919050565b600067ffffffffffffffff8211156141b357600080fd5b506020601f91909101601f19160190565b60200190565b5190565b90815260200190565b600061351c826141e7565b151590565b600160a060020a031690565b600061351c82600061351c826141d7565b82818337506000910152565b60005b8381101561422b578181015183820152602001614213565b8381111561423a576000848401525b50505050565b601f01601f191690565b614253816141d7565b811461425e57600080fd5b50565b61425381610fca56fea365627a7a72315820fa1198097e756cc8c092a739c16abde8c0d58f5afad12550e223a1beb77eb5826c6578706572696d656e74616cf564736f6c63430005100040",
  "source": "pragma solidity >= 0.5.2;\r\npragma experimental ABIEncoderV2;\r\ncontract Land {\r\n    struct Landreg {\r\n        uint id;\r\n        uint area;\r\n        string city;\r\n        string state;\r\n        uint landPrice;\r\n        uint propertyPID;\r\n        uint physicalSurveyNumber;\r\n        string ipfsHash;\r\n        string document;\r\n    }\r\n\r\n    struct Buyer{\r\n        address id;\r\n        string name;\r\n        uint age;\r\n        string city;\r\n        string aadharNumber;\r\n        string panNumber;\r\n        string document;\r\n        string email;\r\n    }\r\n\r\n    struct Seller{\r\n        address id;\r\n        string name;\r\n        uint age;\r\n        string aadharNumber;\r\n        string panNumber;\r\n        string landsOwned;\r\n        string document;\r\n    }\r\n\r\n    struct LandInspector {\r\n        uint id;\r\n        string name;\r\n        uint age;\r\n        string designation;\r\n    }\r\n\r\n    struct LandRequest{\r\n        uint reqId;\r\n        address sellerId;\r\n        address buyerId;\r\n        uint landId;\r\n        // bool requestStatus;\r\n        // bool requested;\r\n    }\r\n\r\n    //key value pairs\r\n    mapping(uint => Landreg) public lands;\r\n    mapping(uint => LandInspector) public InspectorMapping;\r\n    mapping(address => Seller) public SellerMapping;\r\n    mapping(address => Buyer) public BuyerMapping;\r\n    mapping(uint => LandRequest) public RequestsMapping;\r\n\r\n    mapping(address => bool) public RegisteredAddressMapping;\r\n    mapping(address => bool) public RegisteredSellerMapping;\r\n    mapping(address => bool) public RegisteredBuyerMapping;\r\n    mapping(address => bool) public SellerVerification;\r\n    mapping(address => bool) public SellerRejection;\r\n    mapping(address => bool) public BuyerVerification;\r\n    mapping(address => bool) public BuyerRejection;\r\n    mapping(uint => bool) public LandVerification;\r\n    mapping(uint => address) public LandOwner;\r\n    mapping(uint => bool) public RequestStatus;\r\n    mapping(uint => bool) public RequestedLands;\r\n    mapping(uint => bool) public PaymentReceived;\r\n    mapping(uint => address) public LandHeir;\r\n    mapping(uint => bool) public OwnerDeceased;\r\n\r\n    address public Land_Inspector;\r\n    address[] public sellers;\r\n    address[] public buyers;\r\n\r\n    uint public landsCount;\r\n    uint public inspectorsCount;\r\n    uint public sellersCount;\r\n    uint public buyersCount;\r\n    uint public requestsCount;\r\n\r\n    event Registration(address _registrationId);\r\n    event AddingLand(uint indexed _landId);\r\n    event Landrequested(address _sellerId);\r\n    event requestApproved(address _buyerId);\r\n    event Verified(address _id);\r\n    event Rejected(address _id);\r\n    event HeirDesignated(uint _landId, address _heir);\r\n    event OwnerMarkedDeceased(uint _landId);\r\n    event InheritanceClaimed(uint _landId, address _newOwner);\r\n\r\n    constructor() public{\r\n        Land_Inspector = msg.sender ;\r\n        addLandInspector(\"Inspector 1\", 45, \"Tehsil Manager\");\r\n    }\r\n\r\n    function addLandInspector(string memory _name, uint _age, string memory _designation) private {\r\n        inspectorsCount++;\r\n        InspectorMapping[inspectorsCount] = LandInspector(inspectorsCount, _name, _age, _designation);\r\n    }\r\n\r\n    function getLandsCount() public view returns (uint) {\r\n        return landsCount;\r\n    }\r\n\r\n    function getBuyersCount() public view returns (uint) {\r\n        return buyersCount;\r\n    }\r\n\r\n    function getSellersCount() public view returns (uint) {\r\n        return sellersCount;\r\n    }\r\n\r\n    function getRequestsCount() public view returns (uint) {\r\n        return requestsCount;\r\n    }\r\n    function getArea(uint i) public view returns (uint) {\r\n        return lands[i].area;\r\n    }\r\n    function getCity(uint i) public view returns (string memory) {\r\n        return lands[i].city;\r\n    }\r\n     function getState(uint i) public view returns (string memory) {\r\n        return lands[i].state;\r\n    }\r\n    // function getStatus(uint i) public view returns (bool) {\r\n    //     return lands[i].verificationStatus;\r\n    // }\r\n    function getPrice(uint i) public view returns (uint) {\r\n        return lands[i].landPrice;\r\n    }\r\n    function getPID(uint i) public view returns (uint) {\r\n        return lands[i].propertyPID;\r\n    }\r\n    function getSurveyNumber(uint i) public view returns (uint) {\r\n        return lands[i].physicalSurveyNumber;\r\n    }\r\n    function getImage(uint i) public view returns (string memory) {\r\n        return lands[i].ipfsHash;\r\n    }\r\n    function getDocument(uint i) public view returns (string memory) {\r\n        return lands[i].document;\r\n    }\r\n    \r\n    function getLandOwner(uint id) public view returns (address) {\r\n        return LandOwner[id];\r\n    }\r\n\r\n    function verifySeller(address _sellerId) public{\r\n        require(isLandInspector(msg.sender));\r\n\r\n        SellerVerification[_sellerId] = true;\r\n        emit Verified(_sellerId);\r\n    }\r\n\r\n    function rejectSeller(address _sellerId) public{\r\n        require(isLandInspector(msg.sender));\r\n\r\n        SellerRejection[_sellerId] = true;\r\n        emit Rejected(_sellerId);\r\n    }\r\n\r\n    function verifyBuyer(address _buyerId) public{\r\n        require(isLandInspector(msg.sender));\r\n\r\n        BuyerVerification[_buyerId] = true;\r\n        emit Verified(_buyerId);\r\n    }\r\n\r\n    function rejectBuyer(address _buyerId) public{\r\n        require(isLandInspector(msg.sender));\r\n\r\n        BuyerRejection[_buyerId] = true;\r\n        emit Rejected(_buyerId);\r\n    }\r\n    \r\n    function verifyLand(uint _landId) public{\r\n        require(isLandInspector(msg.sender));\r\n\r\n        LandVerification[_landId] = true;\r\n    }\r\n\r\n    function isLandVerified(uint _id) public view returns (bool) {\r\n        if(LandVerification[_id]){\r\n            return true;\r\n        }\r\n    }\r\n\r\n    function isVerified(address _id) public view returns (bool) {\r\n        if(SellerVerification[_id] || BuyerVerification[_id]){\r\n            return true;\r\n        }\r\n    }\r\n\r\n    function isRejected(address _id) public view returns (bool) {\r\n        if(SellerRejection[_id] || BuyerRejection[_id]){\r\n            return true;\r\n        }\r\n    }\r\n\r\n    function isSeller(address _id) public view returns (bool) {\r\n        if(RegisteredSellerMapping[_id]){\r\n            return true;\r\n        }\r\n    }\r\n\r\n    function isLandInspector(address _id) public view returns (bool) {\r\n        if(Land_Inspector == _id){\r\n            return true;\r\n        }else{\r\n            return false;\r\n        }\r\n    }\r\n\r\n    function isBuyer(address _id) public view returns (bool) {\r\n        if(RegisteredBuyerMapping[_id]){\r\n            return true;\r\n        }\r\n    }\r\n    function isRegistered(address _id) public view returns (bool) {\r\n        if(RegisteredAddressMapping[_id]){\r\n            return true;\r\n        }\r\n    }\r\n\r\n    function addLand(uint _area, string memory _city,string memory _state, uint landPrice, uint _propertyPID,uint _surveyNum,string memory _ipfsHash, string memory _document) public {\r\n        require((isSeller(msg.sender)) && (isVerified(msg.sender)));\r\n        landsCount++;\r\n        lands[landsCount] = Landreg(landsCount, _area, _city, _state, landPrice,_propertyPID, _surveyNum, _ipfsHash, _document);\r\n        LandOwner[landsCount] = msg.sender;\r\n        // emit AddingLand(landsCount);\r\n    }\r\n\r\n    //registration of seller\r\n    function registerSeller(string memory _name, uint _age, string memory _aadharNumber, string memory _panNumber, string memory _landsOwned, string memory _document) public {\r\n        //require that Seller is not already registered\r\n        require(!RegisteredAddressMapping[msg.sender]);\r\n\r\n        RegisteredAddressMapping[msg.sender] = true;\r\n        RegisteredSellerMapping[msg.sender] = true ;\r\n        sellersCount++;\r\n        SellerMapping[msg.sender] = Seller(msg.sender, _name, _age, _aadharNumber,_panNumber, _landsOwned, _document);\r\n        sellers.push(msg.sender);\r\n        emit Registration(msg.sender);\r\n    }\r\n\r\n    function updateSeller(string memory _name, uint _age, string memory _aadharNumber, string memory _panNumber, string memory _landsOwned) public {\r\n        //require that Seller is already registered\r\n        require(RegisteredAddressMapping[msg.sender] && (SellerMapping[msg.sender].id == msg.sender));\r\n\r\n        SellerMapping[msg.sender].name = _name;\r\n        SellerMapping[msg.sender].age = _age;\r\n        SellerMapping[msg.sender].aadharNumber = _aadharNumber;\r\n        SellerMapping[msg.sender].panNumber = _panNumber;\r\n        SellerMapping[msg.sender].landsOwned = _landsOwned;\r\n\r\n    }\r\n\r\n    function getSeller() public view returns( address [] memory ){\r\n        return(sellers);\r\n    }\r\n\r\n    function getSellerDetails(address i) public view returns (string memory, uint, string memory, string memory, string memory, string memory) {\r\n        return (SellerMapping[i].name, SellerMapping[i].age, SellerMapping[i].aadharNumber, SellerMapping[i].panNumber, SellerMapping[i].landsOwned, SellerMapping[i].document);\r\n    }\r\n\r\n    function registerBuyer(string memory _name, uint _age, string memory _city, string memory _aadharNumber, string memory _panNumber, string memory _document, string memory _email) public {\r\n        //require that Buyer is not already registered\r\n        require(!RegisteredAddressMapping[msg.sender]);\r\n\r\n        RegisteredAddressMapping[msg.sender] = true;\r\n        RegisteredBuyerMapping[msg.sender] = true ;\r\n        buyersCount++;\r\n        BuyerMapping[msg.sender] = Buyer(msg.sender, _name, _age, _city, _aadharNumber, _panNumber, _document, _email);\r\n        buyers.push(msg.sender);\r\n\r\n        emit Registration(msg.sender);\r\n    }\r\n\r\n    function updateBuyer(string memory _name,uint _age, string memory _city,string memory _aadharNumber, string memory _email, string memory _panNumber) public {\r\n        //require that Buyer is already registered\r\n        require(RegisteredAddressMapping[msg.sender] && (BuyerMapping[msg.sender].id == msg.sender));\r\n\r\n        BuyerMapping[msg.sender].name = _name;\r\n        BuyerMapping[msg.sender].age = _age;\r\n        BuyerMapping[msg.sender].city = _city;\r\n        BuyerMapping[msg.sender].aadharNumber = _aadharNumber;\r\n        BuyerMapping[msg.sender].email = _email;\r\n        BuyerMapping[msg.sender].panNumber = _panNumber;\r\n        \r\n    }\r\n\r\n    function getBuyer() public view returns( address [] memory ){\r\n        return(buyers);\r\n    }\r\n\r\n    function getBuyerDetails(address i) public view returns ( string memory,string memory, string memory, string memory, string memory, uint, string memory) {\r\n        return (BuyerMapping[i].name,BuyerMapping[i].city , BuyerMapping[i].panNumber, BuyerMapping[i].document, BuyerMapping[i].email, BuyerMapping[i].age, BuyerMapping[i].aadharNumber);\r\n    }\r\n\r\n\r\n    function requestLand(address _sellerId, uint _landId) public{\r\n        require(isBuyer(msg.sender) && isVerified(msg.sender));\r\n        \r\n        requestsCount++;\r\n        RequestsMapping[requestsCount] = LandRequest(requestsCount, _sellerId, msg.sender, _landId);\r\n        RequestStatus[requestsCount] = false;\r\n        RequestedLands[requestsCount] = true;\r\n\r\n        emit Landrequested(_sellerId);\r\n    }\r\n\r\n    function getRequestDetails (uint i) public view returns (address, address, uint, bool) {\r\n        return(RequestsMapping[i].sellerId, RequestsMapping[i].buyerId, RequestsMapping[i].landId, RequestStatus[i]);\r\n    }\r\n\r\n    function isRequested(uint _id) public view returns (bool) {\r\n        if(RequestedLands[_id]){\r\n            return true;\r\n        }\r\n    }\r\n\r\n    function isApproved(uint _id) public view returns (bool) {\r\n        if(RequestStatus[_id]){\r\n            return true;\r\n        }\r\n    }\r\n\r\n    function approveRequest(uint _reqId) public {\r\n        require((isSeller(msg.sender)) && (isVerified(msg.sender)));\r\n       \r\n        RequestStatus[_reqId] = true;\r\n\r\n    }\r\n\r\n    function LandOwnershipTransfer(uint _landId, address _newOwner) public{\r\n        require(isLandInspector(msg.sender));\r\n        require(PaymentReceived[_landId] == true, \"Transfer failed: Buyer payment is pending\");\r\n\r\n        LandOwner[_landId] = _newOwner;\r\n    }\r\n\r\n    function isPaid(uint _landId) public view returns (bool) {\r\n        if(PaymentReceived[_landId]){\r\n            return true;\r\n        }\r\n    }\r\n\r\n    function payment(address payable _receiver, uint _landId) public payable {\r\n        PaymentReceived[_landId] = true;\r\n        _receiver.transfer(msg.value);\r\n    }\r\n\r\n    // ===== Land Inheritance Feature =====\r\n\r\n    function designateHeir(uint _landId, address _heir) public {\r\n        require(LandOwner[_landId] == msg.sender, \"Only the land owner can designate an heir\");\r\n        require(_heir != address(0), \"Heir address cannot be zero\");\r\n        LandHeir[_landId] = _heir;\r\n        emit HeirDesignated(_landId, _heir);\r\n    }\r\n\r\n    function markDeceased(uint _landId) public {\r\n        require(isLandInspector(msg.sender), \"Only Land Inspector can mark as deceased\");\r\n        OwnerDeceased[_landId] = true;\r\n        emit OwnerMarkedDeceased(_landId);\r\n    }\r\n\r\n    function claimInheritance(uint _landId) public {\r\n        require(LandHeir[_landId] == msg.sender, \"Only the designated heir can claim\");\r\n        require(OwnerDeceased[_landId] == true, \"Owner is not marked as deceased\");\r\n        LandOwner[_landId] = msg.sender;\r\n        LandHeir[_landId] = address(0);\r\n        OwnerDeceased[_landId] = false;\r\n        emit InheritanceClaimed(_landId, msg.sender);\r\n    }\r\n\r\n    function getHeir(uint _landId) public view returns (address) {\r\n        return LandHeir[_landId];\r\n    }\r\n\r\n    function isDeceased(uint _landId) public view returns (bool) {\r\n        return OwnerDeceased[_landId];\r\n    }\r\n\r\n}\r\n",
  "sourcePath": "D:\\Moinuddin_Projects\\land-registry-system\\Land-Registration-with-Blockchain\\contracts\\Land.sol",
  "compiler": {
    "name": "solc",
    "version": "0.5.16+commit.9c3226ce.Emscripten.clang"
  },
  "schemaVersion": "3.4.16",
  "updatedAt": "2026-03-23T15:18:32.273Z",
  "networkType": "ethereum",
  "devdoc": {
    "methods": {}
  },
  "userdoc": {
    "methods": {}
  }
}